:100000000C9446000C9465000C9465000C946500FB
:100010000C9465000C9465000C9465000C946500CC
:100020000C9465000C9465000C9465000C946500BC
:100030000C9465000C9465000C9465000C946500AC
:100040000C9465000C9465000C9467000C9465009A
:100050000C9465000C9465000C9465000C9465008C
:100060000C9465000C9465000C9465000C9465007C
:100070000C9465000C9465000C9465000C9465006C
:100080000C9465000C9465000C94650011241FBE4F
:10009000CFEFD0E1DEBFCDBF11E0A0E0B1E0E4E5FD
:1000A000F6E000E00BBF02C007900D92A630B1074A
:1000B000D9F711E0A6E0B1E001C01D92A633B10767
:1000C000E1F70E94FD020C9428030C9400001F929B
:1000D0000F920FB60F9211240BB60F922F933F93EE
:1000E0004F935F936F937F938F939F93AF93BF9340
:1000F000EF93FF938CB190910701913041F018F08C
:10010000923079F02CC08F3F51F581E007C0E0912B
:100110000601F0E0E85DFE4F808382E080930701F6
:100120001EC090910601E92FF0E0E85DFE4F81834B
:1001300081E08093070182E0890F80930601873078
:1001400070F01092060180916200805880936200E6
:10015000109207016EE088E291E00E942C02FF916C
:10016000EF91BF91AF919F918F917F916F915F912F
:100170004F913F912F910F900BBE0F900FBE0F909C
:100180001F901895BE9A0E94F202C09AC6980895D0
:100190008F929F92BF92CF92DF92EF92FF920F9336
:1001A0001F93CF93DF9300D0CDB7DEB7C82ED62EE6
:1001B000B22E81E0C81203C0E62FE062DE2EFEE61A
:1001C000FA95F1F700C0C0988EE68A95F1F700C065
:1001D0008D2D49835A830E94F802EEE6EA95F1F7E5
:1001E00000C088E0E82E81E0F82E4981842E5A81F3
:1001F000952E8701802F8E198B15C8F4C11009C068
:10020000F0EADF1631F08FEF0E94F802F8018083E8
:1002100004C0F40180810E94F802FEE6FA95F1F72D
:1002200000C00F5F1F4F8FEF881A980AE3CFC09A64
:1002300088E091E00F900F90DF91CF911F910F9187
:10024000FF90EF90DF90CF90BF909F908F90089598
:10025000DF92EF92FF920F931F93CF93DF931F9242
:10026000CDB7DEB78C01F62ED42E0E94C2008CECE6
:100270009AE00197F1F700C00000198221E0AE0179
:100280004F5F5F4F61E081E00E94C800EE24E3947D
:10029000E98221E0AE014F5F5F4F62E081E00E94A2
:1002A000C80094E0F91641F085E0F81639F093E0C3
:1002B000F91206C0E98204C082E001C083E08983AC
:1002C00021E0AE014F5F5F4F63E081E00E94C80014
:1002D00080E2898321E0AE014F5F5F4F65E081E0FE
:1002E0000E94C80087E0898321E0AE014F5F5F4F25
:1002F00066E081E00E94C8002F2DA8016AE081E03D
:100300000E94C8002F2DA80160E181E00E94C80072
:10031000D98221E0AE014F5F5F4F61E181E00E9431
:10032000C8008AE1898321E0AE014F5F5F4F60E042
:1003300081E00E94C8008CEC9AE00197F1F700C0C0
:1003400000000F90DF91CF911F910F91FF90EF90E0
:10035000DF900895DF92EF92FF920F931F93CF9358
:10036000DF931F92CDB7DEB78C01F62ED42E0E94FC
:10037000C2008CEC9AE00197F1F700C000001982EE
:1003800021E0AE014F5F5F4F61E081E00E94C80055
:10039000EE24E394E98221E0AE014F5F5F4F62E01B
:1003A00081E00E94C80094E0F91641F085E0F8165B
:1003B00039F093E0F91206C0E98204C082E001C07E
:1003C00083E0898321E0AE014F5F5F4F63E081E00E
:1003D0000E94C80080E2898321E0AE014F5F5F4F39
:1003E00065E081E00E94C80087E0898321E0AE01DA
:1003F0004F5F5F4F66E081E00E94C8002F2DA8018B
:100400006AE081E00E94C8002F2DA80160E181E030
:100410000E94C800D98221E0AE014F5F5F4F61E1C9
:1004200081E00E94C8008BE1898321E0AE014F5F2B
:100430005F4F60E081E00E94C8008CEC9AE0019779
:10044000F1F700C000000F90DF91CF911F910F9145
:10045000FF90EF90DF9008951F93CF93DF93EC010F
:10046000162F20E0AC0161EE80E00E94C800212F31
:10047000AE0160EA80E00E94C8008FEF9BE6019722
:10048000F1F700C00000C69A9EE69A95F1F700C009
:10049000C6988FEF9BE60197F1F700C00000DF914F
:1004A000CF911F910895FF920F931F93CF93DF93E6
:1004B0001F92CDB7DEB78C01F62E84E0681741F0AD
:1004C00085E0681739F083E0681306C081E003C057
:1004D00082E001C083E0898321E0AE014F5F5F4F7E
:1004E00063E081E00E94C8002F2DA8016AE081E04E
:1004F0000E94C8002F2DA80160E181E00E94C80081
:100500000F90DF91CF911F910F91FF900895FF926F
:100510000F931F93CF93DF931F92CDB7DEB78C015C
:10052000F62E198221E0AE014F5F5F4F60E081E05F
:100530000E94C80089E99BE40197F1F700C02F2DC4
:10054000A8016AE081E00E94C8002F2DA80160E1A7
:1005500081E00E94C8008AE1898321E0AE014F5FFB
:100560005F4F60E081E00E94C80089E99BE4019749
:10057000F1F700C00F90DF91CF911F910F91FF9085
:100580000895C69A0895C69808958EE68A95F1F75B
:1005900000C0C0988EE68A95F1F700C087E20E94FD
:1005A000F8028EE68A95F1F700C080E70E94F80213
:1005B0008EE68A95F1F700C0C09A089595E29A9563
:1005C000F1F7C09895E29A95F1F70E94F80285E25A
:1005D0008A95F1F78FEF0E94F80295E29A95F1F76C
:1005E000C09A089587B3876087BB81E58DB9089568
:1005F0008FB9779BFECF8FB1089580E8809361001B
:1006000088E98AB986E0809395001092900085E091
:1006100089B92FEF8FEB91E2215080409040E1F7B4
:1006200000C000004EE065E080E091E00E942801FB
:100630008091620080688093620078942FEF8FE34E
:1006400095E6215080409040E1F700C00000FFCFC8
:04065000F894FFCF4C
:0606540011121212120047
:00000001FF
