:100000000C9446000C9465000C9465000C946500FB
:100010000C9465000C9465000C9465000C946500CC
:100020000C9465000C9465000C9465000C946500BC
:100030000C9465000C9465000C9465000C946500AC
:100040000C9465000C9465000C9467000C9465009A
:100050000C9465000C9465000C9465000C9465008C
:100060000C9465000C9465000C9465000C9465007C
:100070000C9465000C9465000C9465000C9465006C
:100080000C9465000C9465000C94650011241FBE4F
:10009000CFEFD0E1DEBFCDBF11E0A0E0B1E0E2E103
:1000A000F6E000E00BBF02C007900D92A630B1074A
:1000B000D9F711E0A6E0B1E001C01D92A837B10761
:1000C000E1F70E94F4020C9407030C9400001F92C5
:1000D0000F920FB60F9211240BB60F922F933F93EE
:1000E0004F935F936F937F938F939F93AF93BF9340
:1000F000EF93FF939CB180910701882319F0813021
:1001000069F024C0E0910601F0E0EE0FFF1FE85D0A
:10011000FE4F908381E08093070118C08091060113
:10012000E82FF0E0EE0FFF1FE85DFE4F9183109285
:1001300007018F5F883218F48093060107C0109280
:10014000060160E588E291E00E942302FF91EF91B1
:10015000BF91AF919F918F917F916F915F914F91DF
:100160003F912F910F900BBE0F900FBE0F901F90DD
:100170001895BE9A0E94E902C09AC69808958F9277
:100180009F92BF92CF92DF92EF92FF920F931F93B5
:10019000CF93DF9300D0CDB7DEB7C82ED62EB22EC8
:1001A00081E0C81203C0E62FE062DE2EFEE6FA957B
:1001B000F1F700C0C0988EE68A95F1F700C08D2D4A
:1001C00049835A830E94EF02EEE6EA95F1F700C0F8
:1001D00088E0E82E81E0F82E4981842E5A81952E00
:1001E0008701802F8E198B15C8F4C11009C0F0EA61
:1001F000DF1631F08FEF0E94EF02F801808304C018
:10020000F40180810E94EF02FEE6FA95F1F700C04A
:100210000F5F1F4F8FEF881A980AE3CFC09A88E0CC
:1002200091E00F900F90DF91CF911F910F91FF9070
:10023000EF90DF90CF90BF909F908F900895DF92C6
:10024000EF92FF920F931F93CF93DF931F92CDB73F
:10025000DEB78C01F62ED42E0E94B9008CEC9AE009
:100260000197F1F700C00000198221E0AE014F5F55
:100270005F4F61E081E00E94BF00EE24E394E982D9
:1002800021E0AE014F5F5F4F62E081E00E94BF005E
:1002900094E0F91641F085E0F81639F093E0F91290
:1002A00006C0E98204C082E001C083E0898321E0C6
:1002B000AE014F5F5F4F63E081E00E94BF0080E2CC
:1002C000898321E0AE014F5F5F4F65E081E00E94CE
:1002D000BF0087E0898321E0AE014F5F5F4F66E09A
:1002E00081E00E94BF002F2DA8016AE081E00E94FA
:1002F000BF002F2DA80160E181E00E94BF00D982DC
:1003000021E0AE014F5F5F4F61E181E00E94BF00DD
:100310008AE1898321E0AE014F5F5F4F60E081E0B9
:100320000E94BF008CEC9AE00197F1F700C000003A
:100330000F90DF91CF911F910F91FF90EF90DF9081
:100340000895DF92EF92FF920F931F93CF93DF9365
:100350001F92CDB7DEB78C01F62ED42E0E94B900C5
:100360008CEC9AE00197F1F700C00000198221E0BF
:10037000AE014F5F5F4F61E081E00E94BF00EE245D
:10038000E394E98221E0AE014F5F5F4F62E081E0DC
:100390000E94BF0094E0F91641F085E0F81639F0AC
:1003A00093E0F91206C0E98204C082E001C083E054
:1003B000898321E0AE014F5F5F4F63E081E00E94DF
:1003C000BF0080E2898321E0AE014F5F5F4F65E0AF
:1003D00081E00E94BF0087E0898321E0AE014F5F8A
:1003E0005F4F66E081E00E94BF002F2DA8016AE008
:1003F00081E00E94BF002F2DA80160E181E00E94F2
:10040000BF00D98221E0AE014F5F5F4F61E181E023
:100410000E94BF008BE1898321E0AE014F5F5F4FF7
:1004200060E081E00E94BF008CEC9AE00197F1F758
:1004300000C000000F90DF91CF911F910F91FF90AE
:10044000EF90DF9008951F93CF93DF93EC01162F69
:1004500020E0AC0161EE80E00E94BF00212FAE01E0
:1004600060EA80E00E94BF008FEF9BE60197F1F702
:1004700000C00000C69A9EE69A95F1F700C0C698A3
:100480008FEF9BE60197F1F700C00000DF91CF915D
:100490001F910895FF920F931F93CF93DF931F92A5
:1004A000CDB7DEB78C01F62E84E0681741F085E009
:1004B000681739F083E0681306C081E003C082E06A
:1004C00001C083E0898321E0AE014F5F5F4F63E0AD
:1004D00081E00E94BF002F2DA8016AE081E00E9408
:1004E000BF002F2DA80160E181E00E94BF000F90A6
:1004F000DF91CF911F910F91FF900895FF920F937D
:100500001F93CF93DF931F92CDB7DEB78C01F62EEA
:10051000198221E0AE014F5F5F4F60E081E00E94F1
:10052000BF0089E99BE40197F1F700C02F2DA801D6
:100530006AE081E00E94BF002F2DA80160E181E008
:100540000E94BF008AE1898321E0AE014F5F5F4FC7
:1005500060E081E00E94BF0089E99BE40197F1F728
:1005600000C00F90DF91CF911F910F91FF900895E0
:10057000C69A0895C69808958EE68A95F1F700C048
:10058000C0988EE68A95F1F700C087E20E94EF02DC
:100590008EE68A95F1F700C080E70E94EF028EE6B2
:1005A0008A95F1F700C0C09A089595E29A95F1F7FF
:1005B000C09895E29A95F1F70E94EF0285E28A953C
:1005C000F1F78FEF0E94EF0295E29A95F1F7C09A4A
:1005D000089587B3876087BB81E58DB908958FB98A
:1005E000779BFECF8FB108950E94E90288E98AB90E
:1005F00086E0809395001092900085E089B940E5EF
:1006000065E080E091E00E941F017894FFCFF894AC
:02061000FFCF1A
:0606120011121212120089
:00000001FF
